{"abi":[{"type":"constructor","inputs":[],"stateMutability":"nonpayable"},{"type":"function","name":"DOMAIN_SEPARATOR","inputs":[],"outputs":[{"name":"","type":"bytes32","internalType":"bytes32"}],"stateMutability":"view"},{"type":"function","name":"allowance","inputs":[{"name":"owner","type":"address","internalType":"address"},{"name":"spender","type":"address","internalType":"address"}],"outputs":[{"name":"","type":"uint256","internalType":"uint256"}],"stateMutability":"view"},{"type":"function","name":"approve","inputs":[{"name":"spender","type":"address","internalType":"address"},{"name":"value","type":"uint256","internalType":"uint256"}],"outputs":[{"name":"","type":"bool","internalType":"bool"}],"stateMutability":"nonpayable"},{"type":"function","name":"balanceOf","inputs":[{"name":"account","type":"address","internalType":"address"}],"outputs":[{"name":"","type":"uint256","internalType":"uint256"}],"stateMutability":"view"},{"type":"function","name":"burn","inputs":[{"name":"from","type":"address","internalType":"address"},{"name":"amount","type":"uint256","internalType":"uint256"}],"outputs":[],"stateMutability":"nonpayable"},{"type":"function","name":"decimals","inputs":[],"outputs":[{"name":"","type":"uint8","internalType":"uint8"}],"stateMutability":"view"},{"type":"function","name":"eip712Domain","inputs":[],"outputs":[{"name":"fields","type":"bytes1","internalType":"bytes1"},{"name":"name","type":"string","internalType":"string"},{"name":"version","type":"string","internalType":"string"},{"name":"chainId","type":"uint256","internalType":"uint256"},{"name":"verifyingContract","type":"address","internalType":"address"},{"name":"salt","type":"bytes32","internalType":"bytes32"},{"name":"extensions","type":"uint256[]","internalType":"uint256[]"}],"stateMutability":"view"},{"type":"function","name":"mint","inputs":[{"name":"to","type":"address","internalType":"address"},{"name":"amount","type":"uint256","internalType":"uint256"}],"outputs":[],"stateMutability":"nonpayable"},{"type":"function","name":"name","inputs":[],"outputs":[{"name":"","type":"string","internalType":"string"}],"stateMutability":"view"},{"type":"function","name":"nonces","inputs":[{"name":"owner","type":"address","internalType":"address"}],"outputs":[{"name":"","type":"uint256","internalType":"uint256"}],"stateMutability":"view"},{"type":"function","name":"permit","inputs":[{"name":"owner","type":"address","internalType":"address"},{"name":"spender","type":"address","internalType":"address"},{"name":"value","type":"uint256","internalType":"uint256"},{"name":"deadline","type":"uint256","internalType":"uint256"},{"name":"v","type":"uint8","internalType":"uint8"},{"name":"r","type":"bytes32","internalType":"bytes32"},{"name":"s","type":"bytes32","internalType":"bytes32"}],"outputs":[],"stateMutability":"nonpayable"},{"type":"function","name":"symbol","inputs":[],"outputs":[{"name":"","type":"string","internalType":"string"}],"stateMutability":"view"},{"type":"function","name":"totalSupply","inputs":[],"outputs":[{"name":"","type":"uint256","internalType":"uint256"}],"stateMutability":"view"},{"type":"function","name":"transfer","inputs":[{"name":"to","type":"address","internalType":"address"},{"name":"value","type":"uint256","internalType":"uint256"}],"outputs":[{"name":"","type":"bool","internalType":"bool"}],"stateMutability":"nonpayable"},{"type":"function","name":"transferFrom","inputs":[{"name":"from","type":"address","internalType":"address"},{"name":"to","type":"address","internalType":"address"},{"name":"value","type":"uint256","internalType":"uint256"}],"outputs":[{"name":"","type":"bool","internalType":"bool"}],"stateMutability":"nonpayable"},{"type":"event","name":"Approval","inputs":[{"name":"owner","type":"address","indexed":true,"internalType":"address"},{"name":"spender","type":"address","indexed":true,"internalType":"address"},{"name":"value","type":"uint256","indexed":false,"internalType":"uint256"}],"anonymous":false},{"type":"event","name":"EIP712DomainChanged","inputs":[],"anonymous":false},{"type":"event","name":"Transfer","inputs":[{"name":"from","type":"address","indexed":true,"internalType":"address"},{"name":"to","type":"address","indexed":true,"internalType":"address"},{"name":"value","type":"uint256","indexed":false,"internalType":"uint256"}],"anonymous":false},{"type":"error","name":"ECDSAInvalidSignature","inputs":[]},{"type":"error","name":"ECDSAInvalidSignatureLength","inputs":[{"name":"length","type":"uint256","internalType":"uint256"}]},{"type":"error","name":"ECDSAInvalidSignatureS","inputs":[{"name":"s","type":"bytes32","internalType":"bytes32"}]},{"type":"error","name":"ERC20InsufficientAllowance","inputs":[{"name":"spender","type":"address","internalType":"address"},{"name":"allowance","type":"uint256","internalType":"uint256"},{"name":"needed","type":"uint256","internalType":"uint256"}]},{"type":"error","name":"ERC20InsufficientBalance","inputs":[{"name":"sender","type":"address","internalType":"address"},{"name":"balance","type":"uint256","internalType":"uint256"},{"name":"needed","type":"uint256","internalType":"uint256"}]},{"type":"error","name":"ERC20InvalidApprover","inputs":[{"name":"approver","type":"address","internalType":"address"}]},{"type":"error","name":"ERC20InvalidReceiver","inputs":[{"name":"receiver","type":"address","internalType":"address"}]},{"type":"error","name":"ERC20InvalidSender","inputs":[{"name":"sender","type":"address","internalType":"address"}]},{"type":"error","name":"ERC20InvalidSpender","inputs":[{"name":"spender","type":"address","internalType":"address"}]},{"type":"error","name":"ERC2612ExpiredSignature","inputs":[{"name":"deadline","type":"uint256","internalType":"uint256"}]},{"type":"error","name":"ERC2612InvalidSigner","inputs":[{"name":"signer","type":"address","internalType":"address"},{"name":"owner","type":"address","internalType":"address"}]},{"type":"error","name":"InvalidAccountNonce","inputs":[{"name":"account","type":"address","internalType":"address"},{"name":"currentNonce","type":"uint256","internalType":"uint256"}]},{"type":"error","name":"InvalidShortString","inputs":[]},{"type":"error","name":"StringTooLong","inputs":[{"name":"str","type":"string","internalType":"string"}]}],"bytecode":{"object":"0x6101606040523461043057604051610018604082610434565b600a815260208101690546573742045524332360b41b81526040519061003f604083610434565b600a8252690546573742045524332360b41b602083015260405192610065604085610434565b600684526505445524332360d41b602085015260405193610087604086610434565b60018552603160f81b60208601908152845190946001600160401b0382116103335760035490600182811c92168015610426575b60208310146103155781601f8493116103b8575b50602090601f8311600114610352575f92610347575b50508160011b915f199060031b1c1916176003555b8051906001600160401b0382116103335760045490600182811c92168015610329575b60208310146103155781601f8493116102a7575b50602090601f8311600114610241575f92610236575b50508160011b915f199060031b1c1916176004555b61016581610457565b61012052610172846105f8565b61014052519020918260e05251902080610100524660a0526040519060208201927f8b73c3c69bb8fe3d512ecc4cf759cc79239f7b179b0ffacaa9a75d522b39400f8452604083015260608201524660808201523060a082015260a081526101db60c082610434565b5190206080523060c052604051610d68908161078b823960805181610a51015260a05181610b0e015260c05181610a1b015260e05181610aa001526101005181610ac6015261012051816104340152610140518161045d0152f35b015190505f80610147565b60045f9081528281209350601f198516905b81811061028f5750908460019594939210610277575b505050811b0160045561015c565b01515f1960f88460031b161c191690555f8080610269565b92936020600181928786015181550195019301610253565b60045f529091507f8a35acfbc15ff81a39ae7d344fd709f28e8600b4aa8c65c6b64bfe7fe36bd19b601f840160051c8101916020851061030b575b90601f859493920160051c01905b8181106102fd5750610131565b5f81558493506001016102f0565b90915081906102e2565b634e487b7160e01b5f52602260045260245ffd5b91607f169161011d565b634e487b7160e01b5f52604160045260245ffd5b015190505f806100e5565b60035f9081528281209350601f198516905b8181106103a05750908460019594939210610388575b505050811b016003556100fa565b01515f1960f88460031b161c191690555f808061037a565b92936020600181928786015181550195019301610364565b60035f529091507fc2575a0e9e593c00f959f8c92f12db2869c3395a3b0502d05e2516446f71f85b601f840160051c8101916020851061041c575b90601f859493920160051c01905b81811061040e57506100cf565b5f8155849350600101610401565b90915081906103f3565b91607f16916100bb565b5f80fd5b601f909101601f19168101906001600160401b0382119082101761033357604052565b908151602081105f146104eb575090601f815111610491576020815191015160208210610482571790565b5f198260200360031b1b161790565b6040519063305a27a960e01b825260206004830152818151918260248301525f5b8381106104d3575050815f6044809484010152601f80199101168101030190fd5b602082820181015160448784010152859350016104b2565b6001600160401b03811161033357600554600181811c911680156105ee575b602082101461031557601f81116105bb575b50602092601f821160011461055a57928192935f9261054f575b50508160011b915f199060031b1c19161760055560ff90565b015190505f80610536565b601f1982169360055f52805f20915f5b8681106105a3575083600195961061058b575b505050811b0160055560ff90565b01515f1960f88460031b161c191690555f808061057d565b9192602060018192868501518155019401920161056a565b60055f52601f60205f20910160051c810190601f830160051c015b8181106105e3575061051c565b5f81556001016105d6565b90607f169061050a565b908151602081105f1461067d575090601f815111610623576020815191015160208210610482571790565b6040519063305a27a960e01b825260206004830152818151918260248301525f5b838110610665575050815f6044809484010152601f80199101168101030190fd5b60208282018101516044878401015285935001610644565b6001600160401b03811161033357600654600181811c91168015610780575b602082101461031557601f811161074d575b50602092601f82116001146106ec57928192935f926106e1575b50508160011b915f199060031b1c19161760065560ff90565b015190505f806106c8565b601f1982169360065f52805f20915f5b868110610735575083600195961061071d575b505050811b0160065560ff90565b01515f1960f88460031b161c191690555f808061070f565b919260206001819286850151815501940192016106fc565b60065f52601f60205f20910160051c810190601f830160051c015b81811061077557506106ae565b5f8155600101610768565b90607f169061069c56fe6080806040526004361015610012575f80fd5b5f3560e01c90816306fdde031461078557508063095ea7b31461075f57806318160ddd1461074257806323b872dd14610662578063313ce567146106475780633644e5151461062557806340c10f191461058357806370a082311461054c5780637ecebe001461051457806384b0196e1461041c57806395d89b411461033a5780639dc29fac1461028b578063a9059cbb1461025a578063d505accf146101155763dd62ed3e146100c1575f80fd5b34610111576040366003190112610111576100da610866565b6100e261087c565b6001600160a01b039182165f908152600160209081526040808320949093168252928352819020549051908152f35b5f80fd5b346101115760e03660031901126101115761012e610866565b61013661087c565b604435906064359260843560ff81168103610111578442116102475761020a6102139160018060a01b03841696875f52600760205260405f20908154916001830190556040519060208201927f6e71edae12b1b97f4d1f60370fef10105fa2faae0126114a169c64845d6126c984528a604084015260018060a01b038916606084015289608084015260a083015260c082015260c081526101d860e08261094b565b5190206101e3610a18565b906040519161190160f01b83526002830152602282015260c43591604260a4359220610c31565b90929192610cbe565b6001600160a01b0316848103610230575061022e9350610b34565b005b84906325c0072360e11b5f5260045260245260445ffd5b8463313c898160e11b5f5260045260245ffd5b3461011157604036600319011261011157610280610276610866565b6024359033610981565b602060405160018152f35b34610111576040366003190112610111576102a4610866565b602435906001600160a01b0316801561032757805f525f60205260405f205482811061030e576020835f947fddf252ad1be2c89b69c2b068fc378daa952ba7f163c4a11628f55a4df523b3ef938587528684520360408620558060025403600255604051908152a3005b9063391434e360e21b5f5260045260245260445260645ffd5b634b637e8f60e11b5f525f60045260245ffd5b34610111575f366003190112610111576040515f60045461035a81610892565b80845290600181169081156103f8575060011461039a575b610396836103828185038261094b565b604051918291602083526020830190610827565b0390f35b60045f9081527f8a35acfbc15ff81a39ae7d344fd709f28e8600b4aa8c65c6b64bfe7fe36bd19b939250905b8082106103de57509091508101602001610382610372565b9192600181602092548385880101520191019092916103c6565b60ff191660208086019190915291151560051b840190910191506103829050610372565b34610111575f366003190112610111576104b86104587f0000000000000000000000000000000000000000000000000000000000000000610b97565b6104817f0000000000000000000000000000000000000000000000000000000000000000610bfa565b60206104c660405192610494838561094b565b5f84525f368137604051958695600f60f81b875260e08588015260e0870190610827565b908582036040870152610827565b4660608501523060808501525f60a085015283810360c08501528180845192838152019301915f5b8281106104fd57505050500390f35b8351855286955093810193928101926001016104ee565b34610111576020366003190112610111576001600160a01b03610535610866565b165f526007602052602060405f2054604051908152f35b34610111576020366003190112610111576001600160a01b0361056d610866565b165f525f602052602060405f2054604051908152f35b346101115760403660031901126101115761059c610866565b6001600160a01b0316602435811561061257600254908082018092116105fe5760207fddf252ad1be2c89b69c2b068fc378daa952ba7f163c4a11628f55a4df523b3ef915f9360025584845283825260408420818154019055604051908152a3005b634e487b7160e01b5f52601160045260245ffd5b63ec442f0560e01b5f525f60045260245ffd5b34610111575f36600319011261011157602061063f610a18565b604051908152f35b34610111575f36600319011261011157602060405160128152f35b346101115760603660031901126101115761067b610866565b61068361087c565b6001600160a01b0382165f8181526001602081815260408084203385529091529091205491936044359392909181016106c2575b506102809350610981565b83811061072757841561071457331561070157610280945f52600160205260405f2060018060a01b0333165f526020528360405f2091039055846106b7565b634a1406b160e11b5f525f60045260245ffd5b63e602df0560e01b5f525f60045260245ffd5b8390637dc7a0d960e11b5f523360045260245260445260645ffd5b34610111575f366003190112610111576020600254604051908152f35b346101115760403660031901126101115761028061077b610866565b6024359033610b34565b34610111575f366003190112610111575f6003546107a281610892565b80845290600181169081156103f857506001146107c957610396836103828185038261094b565b60035f9081527fc2575a0e9e593c00f959f8c92f12db2869c3395a3b0502d05e2516446f71f85b939250905b80821061080d57509091508101602001610382610372565b9192600181602092548385880101520191019092916107f5565b91908251928382525f5b848110610851575050825f602080949584010152601f8019910116010190565b80602080928401015182828601015201610831565b600435906001600160a01b038216820361011157565b602435906001600160a01b038216820361011157565b90600182811c921680156108c0575b60208310146108ac57565b634e487b7160e01b5f52602260045260245ffd5b91607f16916108a1565b5f92918154916108d983610892565b808352926001811690811561092e57506001146108f557505050565b5f9081526020812093945091925b838310610914575060209250010190565b600181602092949394548385870101520191019190610903565b915050602093945060ff929192191683830152151560051b010190565b90601f8019910116810190811067ffffffffffffffff82111761096d57604052565b634e487b7160e01b5f52604160045260245ffd5b6001600160a01b0316908115610327576001600160a01b031691821561061257815f525f60205260405f20548181106109ff57817fddf252ad1be2c89b69c2b068fc378daa952ba7f163c4a11628f55a4df523b3ef92602092855f525f84520360405f2055845f525f825260405f20818154019055604051908152a3565b8263391434e360e21b5f5260045260245260445260645ffd5b307f00000000000000000000000000000000000000000000000000000000000000006001600160a01b03161480610b0b575b15610a73577f000000000000000000000000000000000000000000000000000000000000000090565b60405160208101907f8b73c3c69bb8fe3d512ecc4cf759cc79239f7b179b0ffacaa9a75d522b39400f82527f000000000000000000000000000000000000000000000000000000000000000060408201527f000000000000000000000000000000000000000000000000000000000000000060608201524660808201523060a082015260a08152610b0560c08261094b565b51902090565b507f00000000000000000000000000000000000000000000000000000000000000004614610a4a565b6001600160a01b0316908115610714576001600160a01b03169182156107015760207f8c5be1e5ebec7d5bd14f71427d1e84f3dd0314c0f7b2291e5b200ac8c7c3b92591835f526001825260405f20855f5282528060405f2055604051908152a3565b60ff8114610bdd5760ff811690601f8211610bce5760405191610bbb60408461094b565b6020808452838101919036833783525290565b632cd44ac360e21b5f5260045ffd5b50604051610bf781610bf08160056108ca565b038261094b565b90565b60ff8114610c1e5760ff811690601f8211610bce5760405191610bbb60408461094b565b50604051610bf781610bf08160066108ca565b91907f7fffffffffffffffffffffffffffffff5d576e7357a4501ddfe92f46681b20a08411610cb3579160209360809260ff5f9560405194855216868401526040830152606082015282805260015afa15610ca8575f516001600160a01b03811615610c9e57905f905f90565b505f906001905f90565b6040513d5f823e3d90fd5b5050505f9160039190565b6004811015610d1e5780610cd0575050565b60018103610ce75763f645eedf60e01b5f5260045ffd5b60028103610d02575063fce698f760e01b5f5260045260245ffd5b600314610d0c5750565b6335e2f38360e21b5f5260045260245ffd5b634e487b7160e01b5f52602160045260245ffdfea264697066735822122029df738f5e01e88a7811fb7e0cecf389a88b380ca14a68f3f5abeb1fa44ffc9364736f6c634300081c0033","linkReferences":{}},"methodIdentifiers":{"DOMAIN_SEPARATOR()":"3644e515","allowance(address,address)":"dd62ed3e","approve(address,uint256)":"095ea7b3","balanceOf(address)":"70a08231","burn(address,uint256)":"9dc29fac","decimals()":"313ce567","eip712Domain()":"84b0196e","mint(address,uint256)":"40c10f19","name()":"06fdde03","nonces(address)":"7ecebe00","permit(address,address,uint256,uint256,uint8,bytes32,bytes32)":"d505accf","symbol()":"95d89b41","totalSupply()":"18160ddd","transfer(address,uint256)":"a9059cbb","transferFrom(address,address,uint256)":"23b872dd"},"id":56}