{"abi":[{"type":"function","name":"createRollup","inputs":[{"name":"chainId","type":"uint256","internalType":"uint256"},{"name":"rollup","type":"address","internalType":"address"}],"outputs":[],"stateMutability":"nonpayable"},{"type":"function","name":"fillRoots","inputs":[{"name":"","type":"uint256","internalType":"uint256"}],"outputs":[{"name":"","type":"bytes32","internalType":"bytes32"}],"stateMutability":"view"},{"type":"function","name":"orderRoots","inputs":[{"name":"","type":"uint256","internalType":"uint256"}],"outputs":[{"name":"","type":"bytes32","internalType":"bytes32"}],"stateMutability":"view"},{"type":"function","name":"rollups","inputs":[{"name":"","type":"uint256","internalType":"uint256"}],"outputs":[{"name":"","type":"address","internalType":"address"}],"stateMutability":"view"},{"type":"function","name":"updateRollupFillRoot","inputs":[{"name":"chainId","type":"uint256","internalType":"uint256"},{"name":"root","type":"bytes32","internalType":"bytes32"}],"outputs":[],"stateMutability":"nonpayable"},{"type":"function","name":"updateRollupOrderRoot","inputs":[{"name":"chainId","type":"uint256","internalType":"uint256"},{"name":"root","type":"bytes32","internalType":"bytes32"}],"outputs":[],"stateMutability":"nonpayable"},{"type":"error","name":"RollupAlreadyExists","inputs":[{"name":"chainId","type":"uint256","internalType":"uint256"}]},{"type":"error","name":"UnauthorizedRollup","inputs":[{"name":"chainId","type":"uint256","internalType":"uint256"}]}],"bytecode":{"object":"0x60808060405234601557610240908161001a8239f35b5f80fdfe6080806040526004361015610012575f80fd5b5f3560e01c908162844ee8146101b4575080630b1d0eb514610176578063262ccf1b1461014c578063b794e5a31461011b578063c170b08d146100dd5763e64e34021461005d575f80fd5b346100d95760403660031901126100d9576024356001600160a01b03811690600435908290036100d9575f818152602081905260409020546001600160a01b03166100c7575f525f60205260405f20906bffffffffffffffffffffffff60a01b8254161790555f80f35b636bfc04ad60e01b5f5260045260245ffd5b5f80fd5b346100d9576100eb366101da565b90805f525f60205261010b8160018060a01b0360405f20541615156101f0565b5f52600160205260405f20555f80f35b346100d95760203660031901126100d9576004355f525f602052602060018060a01b0360405f205416604051908152f35b346100d95760203660031901126100d9576004355f526001602052602060405f2054604051908152f35b346100d957610184366101da565b90805f525f6020526101a48160018060a01b0360405f20541615156101f0565b5f52600260205260405f20555f80f35b346100d95760203660031901126100d9576020906004355f526002825260405f20548152f35b60409060031901126100d9576004359060243590565b156101f85750565b63128b95cd60e11b5f5260045260245ffdfea2646970667358221220564d231e16c629c384766afad36890b458fd1de123ecd944f51d51aa98cd77d164736f6c634300081c0033","linkReferences":{}},"methodIdentifiers":{"createRollup(uint256,address)":"e64e3402","fillRoots(uint256)":"00844ee8","orderRoots(uint256)":"262ccf1b","rollups(uint256)":"b794e5a3","updateRollupFillRoot(uint256,bytes32)":"0b1d0eb5","updateRollupOrderRoot(uint256,bytes32)":"c170b08d"},"id":49}