{"abi":[{"type":"constructor","inputs":[],"stateMutability":"nonpayable"},{"type":"function","name":"authorizeRollup","inputs":[{"name":"chainId","type":"uint256","internalType":"uint256"}],"outputs":[],"stateMutability":"nonpayable"},{"type":"function","name":"authorizedRollups","inputs":[{"name":"","type":"uint256","internalType":"uint256"}],"outputs":[{"name":"","type":"bool","internalType":"bool"}],"stateMutability":"view"},{"type":"function","name":"claim","inputs":[],"outputs":[],"stateMutability":"nonpayable"},{"type":"function","name":"depositCount","inputs":[],"outputs":[{"name":"","type":"uint32","internalType":"uint32"}],"stateMutability":"view"},{"type":"function","name":"escrows","inputs":[{"name":"","type":"bytes32","internalType":"bytes32"}],"outputs":[{"name":"sender","type":"address","internalType":"address"},{"name":"token","type":"address","internalType":"contract IERC20"},{"name":"amount","type":"uint256","internalType":"uint256"}],"stateMutability":"view"},{"type":"function","name":"fillRoot","inputs":[],"outputs":[{"name":"","type":"bytes32","internalType":"bytes32"}],"stateMutability":"view"},{"type":"function","name":"fillRoots","inputs":[{"name":"","type":"uint256","internalType":"uint256"}],"outputs":[{"name":"","type":"bytes32","internalType":"bytes32"}],"stateMutability":"view"},{"type":"function","name":"filler","inputs":[],"outputs":[{"name":"","type":"address","internalType":"contract RollupFiller"}],"stateMutability":"view"},{"type":"function","name":"fulfil","inputs":[{"name":"fillDeadline","type":"uint32","internalType":"uint32"},{"name":"fromToken","type":"address","internalType":"contract IERC20"},{"name":"toToken","type":"address","internalType":"contract IERC20"},{"name":"sender","type":"address","internalType":"address"},{"name":"recipient","type":"address","internalType":"address"},{"name":"amountIn","type":"uint256","internalType":"uint256"},{"name":"minAmountOut","type":"uint256","internalType":"uint256"},{"name":"source","type":"uint256","internalType":"uint256"},{"name":"orderNonce","type":"uint32","internalType":"uint32"},{"name":"smtProof","type":"bytes32[32]","internalType":"bytes32[32]"}],"outputs":[],"stateMutability":"nonpayable"},{"type":"function","name":"getDepositRoot","inputs":[],"outputs":[{"name":"","type":"bytes32","internalType":"bytes32"}],"stateMutability":"view"},{"type":"function","name":"getLeafHash","inputs":[{"name":"fillDeadline","type":"uint256","internalType":"uint256"},{"name":"orderDataType","type":"bytes32","internalType":"bytes32"},{"name":"orderData","type":"bytes","internalType":"bytes"}],"outputs":[{"name":"","type":"bytes32","internalType":"bytes32"}],"stateMutability":"pure"},{"type":"function","name":"orderRoot","inputs":[],"outputs":[{"name":"","type":"bytes32","internalType":"bytes32"}],"stateMutability":"view"},{"type":"function","name":"orderRoots","inputs":[{"name":"","type":"uint256","internalType":"uint256"}],"outputs":[{"name":"","type":"bytes32","internalType":"bytes32"}],"stateMutability":"view"},{"type":"function","name":"orders","inputs":[{"name":"","type":"bytes32","internalType":"bytes32"}],"outputs":[{"name":"","type":"uint8","internalType":"enum OrderStatus"}],"stateMutability":"view"},{"type":"function","name":"release","inputs":[],"outputs":[],"stateMutability":"nonpayable"},{"type":"function","name":"send","inputs":[{"name":"fillDeadline","type":"uint32","internalType":"uint32"},{"name":"fromToken","type":"address","internalType":"contract IERC20"},{"name":"toToken","type":"address","internalType":"contract IERC20"},{"name":"recipient","type":"address","internalType":"address"},{"name":"amountIn","type":"uint256","internalType":"uint256"},{"name":"minAmountOut","type":"uint256","internalType":"uint256"},{"name":"destination","type":"uint256","internalType":"uint256"}],"outputs":[],"stateMutability":"nonpayable"},{"type":"function","name":"unauthorizeRollup","inputs":[{"name":"chainId","type":"uint256","internalType":"uint256"}],"outputs":[],"stateMutability":"nonpayable"},{"type":"function","name":"updateRollupFillRoot","inputs":[{"name":"chainId","type":"uint256","internalType":"uint256"},{"name":"root","type":"bytes32","internalType":"bytes32"}],"outputs":[],"stateMutability":"nonpayable"},{"type":"function","name":"updateRollupOrderRoot","inputs":[{"name":"chainId","type":"uint256","internalType":"uint256"},{"name":"root","type":"bytes32","internalType":"bytes32"}],"outputs":[],"stateMutability":"nonpayable"},{"type":"function","name":"verifyMerkleProof","inputs":[{"name":"leafHash","type":"bytes32","internalType":"bytes32"},{"name":"smtProof","type":"bytes32[32]","internalType":"bytes32[32]"},{"name":"index","type":"uint32","internalType":"uint32"},{"name":"root","type":"bytes32","internalType":"bytes32"}],"outputs":[{"name":"","type":"bool","internalType":"bool"}],"stateMutability":"pure"},{"type":"event","name":"OrderFilled","inputs":[{"name":"orderHash","type":"bytes32","indexed":false,"internalType":"bytes32"}],"anonymous":false},{"type":"event","name":"OrderSent","inputs":[{"name":"orderHash","type":"bytes32","indexed":false,"internalType":"bytes32"}],"anonymous":false},{"type":"error","name":"InvalidDeadline","inputs":[{"name":"deadline","type":"uint256","internalType":"uint256"}]},{"type":"error","name":"InvalidOrder","inputs":[{"name":"orderHash","type":"bytes32","internalType":"bytes32"}]},{"type":"error","name":"MerkleTreeFull","inputs":[]},{"type":"error","name":"OrderExpired","inputs":[{"name":"deadline","type":"uint256","internalType":"uint256"}]},{"type":"error","name":"SafeERC20FailedOperation","inputs":[{"name":"token","type":"address","internalType":"address"}]},{"type":"error","name":"UnauthorizedRollup","inputs":[{"name":"chainId","type":"uint256","internalType":"uint256"}]}],"bytecode":{"object":"0x60808060405234607e576105618181016001600160401b03811183821017606a578291610eb0833903905ff08015605f57602880546001600160a01b0319166001600160a01b0392909216919091179055604051610e2d90816100838239f35b6040513d5f823e3d90fd5b634e487b7160e01b5f52604160045260245ffd5b5f80fdfe6080806040526004361015610012575f80fd5b5f3560e01c908162844ee814610935575080630b1d0eb5146108fd578063262ccf1b146108d35780632bc47ea2146107fb5780632d83549c146107aa5780632dfdf0b5146107885780633ae05047146107665780634e71d92d1461074457806370cae7b01461074957806386d1a69f14610744578063902abd02146107275780639ac7bde4146105c75780639c3f1e901461057d578063b90885f61461054e578063c170b08d14610516578063c5e126cd146104e8578063caac9dca146104c0578063e134e01c14610495578063f56e8944146101e65763fb570834146100f7575f80fd5b346101e2576104603660031901126101e25736610424116101e2576104243563ffffffff81168091036101e2576004355f915b60208310610142576020826104443514604051908152f35b9060018083851c16145f146101a6576020831015610192576001908360051b6024019060405190602082019235835260408201526040815261018560608261098e565b519020925b01919061012a565b634e487b7160e01b5f52603260045260245ffd5b6020831015610192576001908360051b6024016040519060208201928352356040820152604081526101d960608261098e565b5190209261018a565b5f80fd5b346101e2576105203660031901126101e2576102006109c2565b6102086109d5565b6102106109eb565b91610219610a01565b6084356001600160a01b03811694909290918584036101e25760c4359460e43596610104359363ffffffff85168095036101e25736610524116101e25763ffffffff90895f5260216020526102758a60ff60405f205416610a17565b1692428410610482576102f2926103059492610300926040519261029884610971565b8c845246602085015260018060a01b0316604084015260018060a01b038916606084015260018060a01b0316608083015260a082015260a43560c08201528860e08201528561010082015260405193849160208301610bb6565b03601f19810184528361098e565b610a52565b945f52602460205260405f20549085905f905b602082106103f4575050036103e15760285460405163b214faa560e01b8152600481018690529490602090869060249082905f906001600160a01b03165af19485156103d6575f956103a1575b5060207fe6043a9faa355b4a07ebffd9f3aef89c2067acfa9fcc0a9bf3b2d2361aecb6f89161039f96602755604051908152a13390610d60565b005b94506020853d6020116103ce575b816103bc6020938361098e565b810103126101e2579351936020610365565b3d91506103af565b6040513d5f823e3d90fd5b8363d8cf2fdb60e01b5f5260045260245ffd5b909160018083851c16145f14610445576020831015610192576001908360051b610124019060405190602082019235835260408201526040815261043960608261098e565b519020925b0190610318565b6020831015610192576001908360051b6101240160405190602082019283523560408201526040815261047960608261098e565b5190209261043e565b836306b4c23760e21b5f5260045260245ffd5b346101e25760203660031901126101e2576004355f908152602160205260409020805460ff19169055005b346101e2575f3660031901126101e2576028546040516001600160a01b039091168152602090f35b346101e25760203660031901126101e2576004355f908152602160205260409020805460ff19166001179055005b346101e2576105243661095b565b90805f52602160205261053e8160ff60405f205416610a17565b5f52602460205260405f20555f80f35b346101e25760203660031901126101e2576004355f526021602052602060ff60405f2054166040519015158152f35b346101e25760203660031901126101e2576004355f52602260205260ff60405f20541660405160038210156105b3576020918152f35b634e487b7160e01b5f52602160045260245ffd5b346101e25760e03660031901126101e2576105e06109c2565b6105e86109d5565b6105f06109eb565b906105f9610a01565b926084359263ffffffff60c43592835f5260216020526106208460ff60405f205416610a17565b1694428611806106fe575b156106eb576102f261039f966103007fb1845751fc092a790195df7d28b43281a9c29d16ebd4f38537ad592975705139956020956106cf9563ffffffff885416916040519361067985610971565b468552898501526001600160a01b038b811660408087019190915291811660608601523360808601529190911660a084015260c083018b905260a43560e084015261010083019190915251938491828801610bb6565b6106d881610cc1565b602655604051908152a130903390610d60565b856309decb5d60e21b5f5260045260245ffd5b50610e1042018042116107135786111561062b565b634e487b7160e01b5f52601160045260245ffd5b346101e2575f3660031901126101e2576020602754604051908152f35b6109b0565b346101e2575f3660031901126101e2576020602654604051908152f35b346101e2575f3660031901126101e2576020610780610aa3565b604051908152f35b346101e2575f3660031901126101e257602063ffffffff815416604051908152f35b346101e25760203660031901126101e2576004355f526023602052606060405f2060018060a01b0381541690600260018060a01b036001830154169101549060405192835260208301526040820152f35b346101e25760603660031901126101e25760443567ffffffffffffffff81116101e257366023820112156101e257806004013567ffffffffffffffff81116108bf5760405190610855601f8201601f19166020018361098e565b808252602082019036602482860101116101e2576020815f9260248397018537840101526108b4606060405180936108a3878301966004358852602435604085015251809285850190610a31565b81010301601f19810183528261098e565b519020604051908152f35b634e487b7160e01b5f52604160045260245ffd5b346101e25760203660031901126101e2576004355f526024602052602060405f2054604051908152f35b346101e25761090b3661095b565b90805f5260216020526109258160ff60405f205416610a17565b5f52602560205260405f20555f80f35b346101e25760203660031901126101e2576020906004355f526025825260405f20548152f35b60409060031901126101e2576004359060243590565b610120810190811067ffffffffffffffff8211176108bf57604052565b90601f8019910116810190811067ffffffffffffffff8211176108bf57604052565b346101e2575f3660031901126101e257005b6004359063ffffffff821682036101e257565b602435906001600160a01b03821682036101e257565b604435906001600160a01b03821682036101e257565b606435906001600160a01b03821682036101e257565b15610a1f5750565b63128b95cd60e11b5f5260045260245ffd5b5f5b838110610a425750505f910152565b8181015183820152602001610a33565b90610a9d60606040518093602082019586527f1c25e4232aa4bd18f5eeefd6084b5d51a1b4fc921eb8c71048de65fb6573cf6360408301526108a38151809260208686019101610a31565b51902090565b6020545f9190829063ffffffff16815b6020831015610bb05760019082841c82168203610b88578354906040519060208201928352604082015260408152610aec60608261098e565b519020925b610b78604096610b1c8851610b068a8261098e565b60048152636e6f646560e01b6020820152610c30565b610b2586610c99565b8751602081019180835289820152888152610b4160608261098e565b51902096610b518151918261098e565b601581527418dd5c9c995b9d16995c9bd2185cda12195a59da1d605a1b6020820152610c30565b610b8186610c99565b0191610ab3565b6040516020810191825286604082015260408152610ba760608261098e565b51902092610af1565b93505050565b81518152602080830151908201526040808301516001600160a01b039081169183019190915260608084015182169083015260808084015182169083015260a0808401519091169082015260c0808301519082015260e080830151908201526101009182015163ffffffff16918101919091526101200190565b5f8091610c826064604051809363104c13eb60e21b602083015260206024830152610c6a8151809281604486015260208686019101610a31565b601f801991011681010301601f19810183528261098e565b6020815191016a636f6e736f6c652e6c6f675afa50565b5f8091604051906327b7cf8560e01b6020830152602482015260248152610c8260448261098e565b9060205463ffffffff811663ffffffff811461071357600163ffffffff910116809163ffffffff1916176020555f925b602084101580610d4c5760018084871c1614610d3b57610192576001908454906040519060208201928352604082015260408152610d3060608261098e565b519020930192610cf1565b509192905055610d49610aa3565b90565b634e487b7160e01b5f52600160045260245ffd5b6040516323b872dd60e01b60208083019182526001600160a01b039485166024840152949093166044820152606480820195909552938452925f9190610da760848261098e565b519082855af1156103d6575f513d610dee57506001600160a01b0381163b155b610dce5750565b635274afe760e01b5f9081526001600160a01b0391909116600452602490fd5b60011415610dc756fea264697066735822122022d31a09c3c9abedef8deda91aeccdca89734ca08800300ed51a0722724196d164736f6c634300081c003360808060405234601557610547908161001a8239f35b5f80fdfe60806040526004361015610011575f80fd5b5f3560e01c80632bc47ea2146101795780632dfdf0b5146101575780633ae050471461013d578063b214faa5146101175763fb57083414610050575f80fd5b3461011357610460366003190112610113573661042411610113576104243563ffffffff8116809103610113576004355f915b6020831061009b576020826040519061044435148152f35b9060019082841c821682036100e1576100b3846103a7565b359060405190602082019283526040820152604081526100d4606082610251565b519020925b019190610083565b6100ea846103a7565b35604051906020820192835260408201526040815261010a606082610251565b519020926100d9565b5f80fd5b3461011357602036600319011261011357602061013560043561045e565b604051908152f35b34610113575f366003190112610113576020610135610294565b34610113575f36600319011261011357602063ffffffff815416604051908152f35b346101135760603660031901126101135760443567ffffffffffffffff8111610113573660238201121561011357806004013567ffffffffffffffff811161023d57604051906101d3601f8201601f191660200183610251565b80825260208201903660248286010111610113576020815f92602483970185378401015261023260606040518093610221878301966004358852602435604085015251809285850190610273565b81010301601f198101835282610251565b519020604051908152f35b634e487b7160e01b5f52604160045260245ffd5b90601f8019910116810190811067ffffffffffffffff82111761023d57604052565b5f5b8381106102845750505f910152565b8181015183820152602001610275565b6020545f9190829063ffffffff16815b60208310156103a15760019082841c821682036103795783549060405190602082019283526040820152604081526102dd606082610251565b519020925b61036960409661030d88516102f78a82610251565b60048152636e6f646560e01b60208201526103cd565b61031686610436565b8751602081019180835289820152888152610332606082610251565b5190209661034281519182610251565b601581527418dd5c9c995b9d16995c9bd2185cda12195a59da1d605a1b60208201526103cd565b61037286610436565b01916102a4565b6040516020810191825286604082015260408152610398606082610251565b519020926102e2565b93505050565b60208110156103b95760051b60240190565b634e487b7160e01b5f52603260045260245ffd5b5f809161041f6064604051809363104c13eb60e21b6020830152602060248301526104078151809281604486015260208686019101610273565b601f801991011681010301601f198101835282610251565b6020815191016a636f6e736f6c652e6c6f675afa50565b5f8091604051906327b7cf8560e01b602083015260248201526024815261041f604482610251565b9060205463ffffffff811663ffffffff81146104fd57600163ffffffff910116809163ffffffff1916176020555f925b6020841015806104e95760018084871c16146104d8576103b95760019084549060405190602082019283526040820152604081526104cd606082610251565b51902093019261048e565b5091929050556104e6610294565b90565b634e487b7160e01b5f52600160045260245ffd5b634e487b7160e01b5f52601160045260245ffdfea26469706673582212203c9eee2dc997770f25d9be00a820833e37c804008b3aa56ce818526b9643226864736f6c634300081c0033","linkReferences":{}},"methodIdentifiers":{"authorizeRollup(uint256)":"c5e126cd","authorizedRollups(uint256)":"b90885f6","claim()":"4e71d92d","depositCount()":"2dfdf0b5","escrows(bytes32)":"2d83549c","fillRoot()":"902abd02","fillRoots(uint256)":"00844ee8","filler()":"caac9dca","fulfil(uint32,address,address,address,address,uint256,uint256,uint256,uint32,bytes32[32])":"f56e8944","getDepositRoot()":"3ae05047","getLeafHash(uint256,bytes32,bytes)":"2bc47ea2","orderRoot()":"70cae7b0","orderRoots(uint256)":"262ccf1b","orders(bytes32)":"9c3f1e90","release()":"86d1a69f","send(uint32,address,address,address,uint256,uint256,uint256)":"9ac7bde4","unauthorizeRollup(uint256)":"e134e01c","updateRollupFillRoot(uint256,bytes32)":"0b1d0eb5","updateRollupOrderRoot(uint256,bytes32)":"c170b08d","verifyMerkleProof(bytes32,bytes32[32],uint32,bytes32)":"fb570834"},"id":33}